:100000000C94E3070C940B080C940B080C94160941
:100010000C9443090C9470090C940B080C940B0875
:100020000C940B080C940B080C940B080C940B0804
:100030000C940B080C946B260C940B080C940B0876
:100040000C942D270C940B080C945D290C94AB296F
:100050000C940B080C940B080C940B080C940B08D4
:100060000C940B080C940B088D21AB21AB21AB2118
:10007000AB21AB21AB21AB21AB21AB21AB21AB2120
:10008000AB21AB21AB21AB21AB21AB21AB21AB2110
:10009000AB21AB21AB21AB21AB21AB21AB21AB2100
:1000A000AB212D1B581B8B1BA01BC41BE81B211C49
:1000B0005F1C771C8F1CA71CF51C441D641DD71DDD
:1000C000161E0E1F561F881FBD1FE31FFB1FA320F8
:1000D000F22040216E21AB21AB21AB21AB21AB2122
:1000E000AB212D1B581B8B1BA01BC41BE81B211C09
:1000F0005F1C771C8F1CA71CF51C441D641DD71D9D
:10010000161E0E1F561F881FBD1FE31FFB1FA320B7
:10011000F22040216E2143757272656E74205A2060
:10012000506F736974696F6E2069733A20005A00CA
:1001300043757272656E74205A20486F6D65205643
:10014000616C75653A005900526573657420436FA0
:100150006D70656C6574652077697468205A2044F9
:10016000696666206F663A005800466F72207570A7
:10017000646174657320616E6420746F20646F77AE
:100180006E6C6F616420746865206C617374657354
:10019000742076657273696F6E2C2076697369744A
:1001A00020687474703A2F2F623963726561746FBE
:1001B000722E636F6D00546F207669657720612021
:1001C000636F7079206F662074686973206C69634F
:1001D000656E73652C207669736974206874747019
:1001E0003A2F2F6372656174697665636F6D6D6F09
:1001F0006E732E6F72672F6C6963656E7365732FF4
:1002000062792D73612F332E302F0054686973206B
:10021000776F726B206973206C6963656E736564B8
:1002200020756E6465722074686520437265617420
:1002300069766520436F6D6D6F6E732041747472C3
:1002400069627574696F6E2D5368617265416C697E
:100250006B6520332E3020556E706F72746564208C
:100260004C6963656E73652E004239437265617433
:10027000696F6E7328746D2920616E642042394362
:10028000726561746F7228746D29206172652074C3
:10029000726164656D61726B73206F6620423943D1
:1002A00072656174696F6E732C204C4C4300436F10
:1002B0007079726967687420323031322C203230A4
:1002C00031332042394372656174696F6E732C203B
:1002D0004C4C4300423943726561746F7228746DEF
:1002E00029204669726D776172652076657273693F
:1002F0006F6E20312E312E322072756E6E696E67F0
:10030000206F6E206120423943726561746F7220E4
:100310004D6F64656C2031005742394331005631CE
:1003200020312032004552524F523A202052756EF1
:10033000617761792058204D74722C2042616420CD
:1003400053656E736F72004552524F523A202052DD
:10035000756E617761792058204D74722C20436C42
:100360006F636B77697365004552524F523A202094
:1003700052756E617761792058204D74722C20433C
:100380006F756E74657220436C6F636B776973650C
:1003900000550043757272656E7420536C69646514
:1003A0002050657263656E74204F70656E206973AE
:1003B0003A200053004E656564732052657365747E
:1003C0003A20594553005231004E656564732052FE
:1003D000657365743A204E4F005230005072696E5A
:1003E00074204379636C652041424F52542E202083
:1003F000486F737420434F4D4D204C6F7374005100
:100400000050726F6A6563746F72206973204F6E5B
:100410000050310050726F6A6563746F72206973A7
:10042000204F6666005030004D6178696D756D2013
:100430005A20696E2050553A20004D004C616D7075
:1004400020486F7572733A20004C00457374696DD3
:100450006174656420686F757273206265666F727F
:1004600065206C616D70206F757470757420697390
:1004700020312F32206F66206F726967696E616C60
:100480002076616C75653A20004B00536875747472
:10049000657220436F6E74726F6C3A2041766169A9
:1004A0006C61626C65004A31005072696E746572ED
:1004B00020556E69743A203633350049363335009D
:1004C00043616C6962726174656420585920506997
:1004D00078656C2053697A6520696E204D69637276
:1004E0006F6E733A200048004379636C652046695B
:1004F0006E69736865642E00460050726F6A6563AA
:10050000746F722773204E6174697665205920528A
:1005100065736F6C7574696F6E3A20004500507298
:100520006F6A6563746F722773204E6174697665B4
:100530002058205265736F6C7574696F6E3A200095
:10054000440050726F6A6563746F7220436F6E74FB
:10055000726F6C3A2020417661696C61626C650053
:10056000413100446966666572656E6365206F6639
:100570003A2020005265736574205A65726F2074AA
:100580006F3A202000466F756E64205A65726F20A6
:1005900061743A20200052616973696E6720506C63
:1005A0006174666F726D20746F2066696E616C2075
:1005B000706F736974696F6E2E0052656C6561733C
:1005C0006564004272656174686520506175736589
:1005D0002046696E69736865642E20204F70656ED1
:1005E000696E6720536875747465722E0052616974
:1005F0007365642E202050617573696E6720666F85
:100600007220627265617468652E2E2E00526169D7
:1006100073696E6720506C6174666F726D20746FC1
:10062000206E657874206C6179657220706F7369D3
:1006300074696F6E202B20636C656172616E6365F7
:10064000204761702E0052656C65617365642C20D3
:100650005368757474657220436C6F7365640053DE
:100660006574746C652050617573652046696E69A8
:10067000736865642E2020526561647920746F2050
:100680004578706F73652E004C6F77657265642EC8
:10069000202050617573696E6720666F72207365E4
:1006A00074746C652E2E2E004C6F776572696E67C0
:1006B00020506C6174666F726D20746F206E657867
:1006C00074206C6179657220706F736974696F6EE4
:1006D0002E0053687574746572204F70656E004308
:1006E0006F6D6D616E643A204C616D702048616C75
:1006F00066204C6966652053657420746F3A20004B
:1007000043757272656E74207A2044726976652032
:1007100053706565642073657420746F2000436FA7
:100720006D6D616E643A205A20486F6D6520526588
:10073000666572656E63652053657420546F200092
:10074000436F6D6D616E643A204572726F722C203A
:1007500050657263656E74204F70656E20537065CE
:100760006564204F7574206F662052616E67650066
:10077000436F6D6D616E643A2041637475616C20E6
:10078000436C6F73652053706565642053657420F6
:10079000546F3A2000436F6D6D616E643A2050656E
:1007A0007263656E7420436C6F736520537065656A
:1007B000642053657420546F3A2000436F6D6D615F
:1007C0006E643A204572726F722C205065726365B8
:1007D0006E74204F70656E205370656564204F7590
:1007E00074206F662052616E676500436F6D6D61A6
:1007F0006E643A2041637475616C204F70656E20A1
:1008000053706565642053657420546F3A2000432B
:100810006F6D6D616E643A2050657263656E742011
:100820004F70656E20537065656420536574205465
:100830006F3A2000436F6D6D616E643A204D6F76A4
:10084000696E672056415420746F3A2000436F6DE3
:100850006D616E643A204D6F76696E672056415423
:1008600020746F204F70656E20506F736974696FCC
:100870006E3A2000436F6D6D616E643A204D6F7665
:10088000696E672056415420746F20436C6F736506
:100890006420506F736974696F6E3A20004552523C
:1008A0004F523A205661742052756E6177617920FB
:1008B00064657465637465642C2064697361626C3B
:1008C00065642E004552524F523A204D7573742084
:1008D000726573657420686F6D65206669727374E4
:1008E0002100436F6D6D616E643A2043616C6962F3
:1008F000726174656420585920506978656C205382
:10090000697A652053657420546F2000436F6D6DC4
:10091000616E643A20566572626F73652054657823
:100920007420436F6D6D656E7473204465616374EC
:100930006976617465642E00436F6D6D616E643A13
:1009400020566572626F7365205465787420436F1A
:100950006D6D656E7473204163746976617465644E
:100960002E00436F6D6D616E643A2053544F5000FA
:10097000436F6D6D616E643A2052657365742048F3
:100980006F6D6520506F736974696F6E7300436F8C
:100990006D6D616E643A20526573657420466163C3
:1009A000746F72792044656661756C747300436F6F
:1009B0006D6D616E643A2042726F6164636173743D
:1009C00020496E74657276616C2069733A20004329
:1009D0006F6D6D616E643A2042726F616463617322
:1009E0007420496E74657276616C2073657420742E
:1009F0006F3A2000436F6D6D616E643A20547572DA
:100A00006E696E672042726F6164636173747320F4
:100A10004F464600436F6D6D616E643A2050726FB1
:100A20006A6563746F7220466163746F72792052D5
:100A30006573657400436F6D6D616E643A20536534
:100A4000742050726F6A656374696F6E204D6F64B5
:100A5000653A2052656172202B204365696C696E8E
:100A60006700436F6D6D616E643A2053657420506A
:100A7000726F6A656374696F6E204D6F64653A20AA
:100A80004365696C696E6700436F6D6D616E643AB2
:100A9000205365742050726F6A656374696F6E20AD
:100AA0004D6F64653A205265617200436F6D6D61F0
:100AB0006E643A205365742050726F6A656374697E
:100AC0006F6E204D6F64653A2046726F6E740043FE
:100AD0006F6D6D616E643A205265736574696E67FF
:100AE0002050726F6A6563746F7200436F6D6D6141
:100AF0006E643A205475726E696E672050726F6A28
:100B00006563746F72204F4E00436F6D6D616E644C
:100B10003A205475726E696E672050726F6A656311
:100B2000746F72204F4646004572726F723A2052BF
:100B3000657365742063757272656E74205A2070D7
:100B40006F736974696F6E2076616C7565206F755F
:100B500074206F66206C696D6974732E202049675C
:100B60006E6F7265642E00436F6D6D616E643A2026
:100B7000526573657474696E672063757272656E11
:100B800074205A20706F736974696F6E20746F3AA5
:100B90002000436F6D6D616E643A2052656C656133
:100BA000736520616E64206379636C6520746F20C7
:100BB0004E657874204C617965722061743A20002A
:100BC0004E4F54453A20205265736574204E657827
:100BD00074204375726520506F736974696F6E205D
:100BE000746F206C617374206375726520706F730D
:100BF0006974696F6E202B206C61737420696E6359
:100C000072656D656E742E004552524F523A202027
:100C1000496E76616C696420436F6D6D616E643AF4
:100C20002052656C6561736520616E642063796331
:100C30006C6520746F204E657874204C6179657204
:100C40002061743A2000436F6D6D616E643A204DEF
:100C5000616E75616C20436F6E74726F6C732044AB
:100C6000656163746976617465642E00436F6D6DB0
:100C7000616E643A204D616E75616C20436F6E74D5
:100C8000726F6C73204163746976617465642E00C1
:100C9000436F6D6D616E643A204572726F722C20E5
:100CA00050657263656E74204C6F77657220537067
:100CB000656564204F7574206F662052616E6765AC
:100CC00000436F6D6D616E643A2052504D204C6F41
:100CD0007765722053706565642053657420546F86
:100CE0002000436F6D6D616E643A205065726365DC
:100CF0006E74204C6F776572205370656564205365
:100D0000657420546F2000436F6D6D616E643A20EE
:100D10004572726F722C2050657263656E7420523A
:100D200061697365205370656564204F7574206F29
:100D3000662052616E676500436F6D6D616E643A47
:100D40002052504D2052616973652053706565646F
:100D50002053657420546F2000436F6D6D616E6485
:100D60003A2050657263656E742052616973652024
:100D700053706565642053657420546F2000436F81
:100D80006D6D616E643A205265706F736974696F3E
:100D90006E204761702073657420746F3A200043A1
:100DA0006F6D6D616E643A204E617469766520598D
:100DB000205265736F6C7574696F6E205365742073
:100DC000546F2000436F6D6D616E643A204E617404
:100DD0006976652058205265736F6C7574696F6E03
:100DE0002053657420546F2000436F6D6D616E64F5
:100DF0003A20476F746F205A20706F736974696F5F
:100E00006E2061743A2000436F6D6D616E643A200C
:100E100052656C6561736520616E64206D6F7665E7
:100E200020746F2066696E616C20706F73697469DD
:100E30006F6E2061743A2000436F6D6D616E643A8D
:100E400020536574746C652044656C61792073650A
:100E50007420746F2000436F6D6D616E643A2042A0
:100E60007265617468652044656C6179207365748E
:100E700020746F2000436F6D6D616E643A202052C4
:100E80006571756573742043757272656E74205355
:100E9000746174757300436F6D6D616E643A2043C5
:100EA00079636C6520746F20696E697469616C2068
:100EB00042617365204C617965722061743A20004B
:100EC000436F6D6D616E643A202041636B6E6F7786
:100ED0006C656467650000C201000100110011002B
:100EE0000C0000E100000A0025002500210000960A
:100EF00000001900390039003600127A00001F0086
:100F00004600460044008070000022004D004D0065
:100F10004A00004B00003600750075007200403832
:100F200000004A009C009C0099008025000072008F
:100F3000EC00EC00E900C0120000E900DA01DA017F
:100F4000D70160090000D701B603B603B303B004AC
:100F50000000B3036E076E076B072C010000DC0E68
:100F6000C11DC11DBE1D00000000240027002A0075
:100F700000000000250028002B00000000002300D6
:100F800026002900040404040404040402020202EA
:100F9000020203030303030301020408102040803C
:100FA00001020408102001020408102000000007BC
:100FB0000002010000030406000000000000000021
:100FC000870A172B800A11241FBECFEFD8E0DEBF9F
:100FD000CDBF11E0A0E0B1E0ECECF4E602C005907A
:100FE0000D92AC3CB107D9F713E0ACECB1E001C015
:100FF0001D92A335B107E1F71FE0C4ECDFE004C0A8
:101000002297FE010E945532C03CD107C9F70E94C9
:101010006D2B0C9459320C940000FC018827992701
:10102000E89421912032E9F3293010F02E30C8F3F2
:101030002B3241F02D3239F4689404C00E947408B8
:10104000820F911D219120532A30C0F31EF49095F8
:1010500081959F4F0895FB01DC0102C001900D9224
:1010600041505040D8F70895FB01DC018D9101906B
:1010700080190110D9F3990B0895FB01DC0101904F
:101080000D920020E1F70895FB01DC014150504032
:1010900048F001900D920020C9F701C01D92415007
:1010A0005040E0F70895FB019F01E8944230C4F0FE
:1010B0004532B4F44A3029F497FB1EF4909581959B
:1010C0009F4F642F77270E943F32805D8A330CF058
:1010D000895D8193CB010097A1F716F45DE25193EE
:1010E0001082C9010C94A1087AE0979F902D879FE8
:1010F000802D910D11240895FA01CF93FF93EF9362
:101100002230CCF02532BCF4C22F2C2F33274427B9
:101110005527FF93EF930E940232EF91FF91605D9C
:101120006A330CF0695D6193B901CA016050704087
:101130008040904051F710828F919F91CF910C94F5
:10114000A108DC01FC01672F71917723E1F7329749
:1011500004C07C916D9370836291AE17BF07C8F392
:101160000895DF92EF92FF920F931F93CF93DF9337
:101170008C01DD24D3942091CC01D80115968C915B
:10118000159782271296ED91FC91139790819823E1
:1011900015962C9315971696CD91DC911797E92EFD
:1011A000FF2432C08B81282F30E0C7018223932394
:1011B000892B39F18A81813099F0833041F4809113
:1011C000CC0190E082239323892B51F41AC0823002
:1011D000C1F48091CC0190E082239323892B89F480
:1011E0001092CE018091CC0190E082239323892B31
:1011F00011F0D092CE018C818093CD01E881F981EC
:1012000009950D80DE81C02D209761F68BB3F80122
:10121000948189238BBB882309F0ADCFDF91CF91D7
:101220001F910F91FF90EF90DF9008951F920F9202
:101230000FB60F9211242F933F934F935F936F93A9
:101240007F938F939F93AF93BF93EF93FF93E0911F
:10125000CF01F091D00180818093CC018FEC91E09F
:101260000E94B108FF91EF91BF91AF919F918F9133
:101270007F916F915F914F913F912F910F900FBE92
:101280000F901F9018951F920F920FB60F92112476
:101290002F933F934F935F936F937F938F939F937E
:1012A000AF93BF93EF93FF93E091D701F091D801F3
:1012B00080818093CC0187ED91E00E94B108FF917D
:1012C000EF91BF91AF919F918F917F916F915F91BE
:1012D0004F913F912F910F900FBE0F901F90189537
:1012E0001F920F920FB60F9211242F933F934F939B
:1012F0005F936F937F938F939F93AF93BF93EF937E
:10130000FF93E091DF01F091E00180818093CC01B7
:101310008FED91E00E94B108FF91EF91BF91AF91E5
:101320009F918F917F916F915F914F913F912F91FD
:101330000F900FBE0F901F9018950E947527609315
:10134000FF017093000280930102909302022091AA
:10135000F9013091FA0140918A0150918B0188275F
:101360009927841B950B281739071CF42050374EFA
:1013700009C080E099E1841B950B2817390734F0E8
:10138000205039413093FA012093F9012091F9015D
:101390003091FA018091FB019091FC0128173907E7
:1013A0003CF481E090E090938D0180938C0104C027
:1013B00010928D0110928C013093FC012093FB015F
:1013C00008958130910509F091C06F5F7F4F09F05A
:1013D00096C0EEE7FFE0859194919093D0018093C1
:1013E000CF018BE690E09093D2018093D10181E010
:1013F0008093D3011092D6011092D501E0E8FFE06E
:10140000859194919093D8018093D7018CE690E0D8
:101410009093DA018093D90182E08093DB011092EE
:10142000DE011092DD01E2E8FFE085919491909356
:10143000E0018093DF018DE690E09093E2018093DC
:10144000E10184E08093E3011092E6011092E5014E
:101450000E9475276093FF01709300028093010240
:10146000909302020E9475276093130270931402F6
:1014700080931502909316020E94752760931B02B9
:1014800070931C0280931D0290931E0283E292E0EF
:101490006CE04DE020E00E942A260E9475276093B0
:1014A0003F027093400280934102909342020E9457
:1014B0007527609343027093440280934502909392
:1014C00046020E9475276093490270934A028093F6
:1014D0004B0290934C020E94752760934D027093CB
:1014E0004E0280934F02909350020895892B39F455
:1014F0006F5F7F4F21F483E292E00E94B124089550
:1015000080E090E06FEF7FEF0E94E109089581E0B5
:1015100090E06FEF7FEF0E94E10908950F931F9312
:10152000CF93DF93EC018B018091A401882381F09C
:101530008DE293E060E071E00E94EC2B8DE293E09D
:10154000BE010E94A92B8DE293E0B8010E94222CDB
:10155000DF91CF911F910F910895EF92FF920F931A
:101560001F939C017B010DE213E0C801B9010E94A9
:10157000A92BC801B7010E94222C1F910F91FF9047
:10158000EF9008950F931F93DF93CF93CDB7DEB7FE
:101590002E970FB6F894DEBF0FBECDBF6091F0015D
:1015A0007091F1018E010F5F1F4FC8014AE00E9448
:1015B0009A2D8EE291E0B8010E94AD0AC8010E9406
:1015C000E42D8E01085F1F4F6091F0017091F101D1
:1015D000C8014AE00E949A2D86E191E0B8010E947C
:1015E0008E0AC8010E94E42D2E960FB6F894DEBF35
:1015F0000FBECDBFCF91DF911F910F9108950F9333
:101600001F93DF93CF93CDB7DEB72E970FB6F89425
:10161000DEBF0FBECDBF60917C0170917D018E0158
:101620000F5F1F4FC8014AE00E949A2D86E491E0A7
:10163000B8010E94AD0AC8010E94E42D8E01085F26
:101640001F4F60917C0170917D01C8014AE00E94AA
:101650009A2D80E391E0B8010E948E0AC8010E9491
:10166000E42D2E960FB6F894DEBF0FBECDBFCF91FE
:10167000DF911F910F910895EF92FF920F931F93A7
:10168000DF93CF93CDB7DEB72E970FB6F894DEBFBA
:101690000FBECDBF8C017E010894E11CF11CC70177
:1016A000B8014AE00E949A2D88E691E0B7010E94B5
:1016B000AD0AC7010E94E42D88E0E82EF12CEC0E63
:1016C000FD1EC701B8014AE00E949A2D88E491E00E
:1016D000B7010E948E0AC7010E94E42D2E960FB614
:1016E000F894DEBF0FBECDBFCF91DF911F910F9158
:1016F000FF90EF900895EF92FF920F931F93DF9367
:10170000CF93CDB7DEB7E8970FB6F894DEBF0FBE24
:10171000CDBF92E0E92E91E0F92E8E010F5F1F4FB1
:10172000C801B7010E94352D8EE193E0B8010E94F7
:10173000AD0AC8010E94E42D8E01085F1F4FC80149
:10174000B7010E94352D88E193E0B8010E94AD0AEF
:10175000C8010E94E42D8E01015F1F4FC801B7012F
:101760000E94352D84ED92E0B8010E948E0AC801D6
:101770000E94E42D8E010A5E1F4FC801B7010E942E
:10178000352D8EEA92E0B8010E948E0AC8010E94AF
:10179000E42D8E01035E1F4FC801B7010E94352D55
:1017A00089E692E0B8010E948E0AC8010E94E42DE9
:1017B0008E010C5D1F4FC801B7010E94352D8BE0D3
:1017C00092E0B8010E948E0AC8010E94E42D8E01A9
:1017D000055D1F4FC801B7010E94352D86EB91E0D2
:1017E000B8010E948E0AC8010E94E42D8E010E5C91
:1017F0001F4FC801B7010E94352D8AE691E0B8015C
:101800000E948E0AC8010E94E42DE8960FB6F89453
:10181000DEBF0FBECDBFCF91DF911F910F91FF9023
:10182000EF900895EF92FF920F931F93DF93CF9362
:10183000CDB7DEB76C970FB6F894DEBF0FBECDBF45
:101840007C018E010F5F1F4FC801B7014AE00E9463
:101850009A2D81E993E0B8010E94AD0AC8010E9467
:10186000E42D81E0E816F10459F48E01085F1F4F62
:10187000C80162E071E00E94352D88E693E01DC04A
:1018800082E0E816F10459F48E01015F1F4FC80190
:1018900062E071E00E94352D87E493E00EC083E0A2
:1018A000E816F10481F48E010A5E1F4FC80162E060
:1018B00071E00E94352D85E293E0B8010E948E0A06
:1018C000C8010E94E42D6C960FB6F894DEBF0FBEDF
:1018D000CDBFCF91DF911F910F91FF90EF900895B1
:1018E000CF92DF92EF92FF920F931F93DF93CF93EC
:1018F000CDB7DEB72E970FB6F894DEBF0FBECDBFC3
:101900006091F9017091FA01882777FD8095982FF1
:101910000E94003120E030E048EC52E40E948C311B
:1019200020E030E048E455E40E9465300E94CD306C
:101930006B017C018E010F5F1F4FC801B6014AE0A9
:101940000E949A2D83EB93E0B8010E94AD0AC80172
:101950000E94E42D8E01085F1F4FC801B6014AE0C6
:101960000E949A2D83E993E0B8010E948E0AC80173
:101970000E94E42D2E960FB6F894DEBF0FBECDBFA9
:10198000CF91DF911F910F91FF90EF90DF90CF905B
:1019900008950F931F93DF93CF93CDB7DEB76C9766
:1019A0000FB6F894DEBF0FBECDBF8091E90188234A
:1019B000D9F08E010F5F1F4FC80162E071E00E94F5
:1019C000352D89ED93E0B8010E94AD0AC8010E944F
:1019D000E42D8E01085F1F4FC80162E071E00E9494
:1019E000352D89EC93E01AC08E01015F1F4FC801AD
:1019F00062E071E00E94352D86EC93E0B8010E9410
:101A0000AD0AC8010E94E42D8E010A5E1F4FC80175
:101A100062E071E00E94352D85EB93E0B8010E94F1
:101A20008E0AC8010E94E42D6C960FB6F894DEBFB2
:101A30000FBECDBFCF91DF911F910F910895EF920F
:101A4000FF920F931F93DF93CF93CDB7DEB72E97FF
:101A50000FB6F894DEBF0FBECDBF02E011E07E01ED
:101A60000894E11CF11CC701B8010E94352D8FEFCD
:101A700093E0B7010E94AD0AC7010E94E42D28E05F
:101A8000E22EF12CEC0EFD1EC701B8010E94352D8F
:101A90008CED93E0B7010E948E0AC7010E94E42DED
:101AA0002E960FB6F894DEBF0FBECDBFCF91DF915B
:101AB0001F910F91FF90EF9008950F931F93DF9365
:101AC000CF93CDB7DEB76C970FB6F894DEBF0FBEDD
:101AD000CDBF80919E0190919F0118161906DCF0F0
:101AE0008E010F5F1F4FC80162E071E00E94352D2B
:101AF00085E294E0B8010E94AD0AC8010E94E42D7D
:101B00008E01085F1F4FC80162E071E00E94352D11
:101B100084E194E01AC08E01015F1F4FC80162E0AA
:101B200071E00E94352D81E194E0B8010E94AD0A78
:101B3000C8010E94E42D8E010A5E1F4FC80162E0B9
:101B400071E00E94352D81E094E0B8010E948E0A78
:101B5000C8010E94E42D6C960FB6F894DEBF0FBE4C
:101B6000CDBFCF91DF911F910F9108950F931F93D8
:101B7000DF93CF93CDB7DEB72E970FB6F894DEBFC5
:101B80000FBECDBF60917E0170917F018E010F5F0E
:101B90001F4FC8014AE00E949A2D8AE394E0B801E1
:101BA0000E94AD0AC8010E94E42D8E01085F1F4FFC
:101BB00060917E0170917F01C8014AE00E949A2DD8
:101BC00088E294E0B8010E948E0AC8010E94E42DC8
:101BD0002E960FB6F894DEBF0FBECDBFCF91DF912A
:101BE0001F910F9108950F931F93DF93CF93CDB75C
:101BF000DEB72E970FB6F894DEBF0FBECDBF609153
:101C0000A0017091A10177FD29C080919E01909162
:101C10009F011816190614F58E010F5F1F4FC8019A
:101C20004AE00E949A2D89E494E0B8010E94AD0A2E
:101C3000C8010E94E42D8E01085F1F4F6091A00132
:101C40007091A101C8014AE00E949A2D8CE394E0B2
:101C5000B8010E948E0AC8010E94E42D2E960FB68C
:101C6000F894DEBF0FBECDBFCF91DF911F910F91D2
:101C700008950F931F93DF93CF93CDB7DEB72E97C1
:101C80000FB6F894DEBF0FBECDBF60917A017091A0
:101C90007B018E010F5F1F4FC8014AE00E949A2D01
:101CA00089E894E0B8010E94AD0AC8010E94E42DC1
:101CB0008E01085F1F4F60917A0170917B01C8010E
:101CC0004AE00E949A2D8BE494E0B8010E948E0AAB
:101CD000C8010E94E42D2E960FB6F894DEBF0FBE09
:101CE000CDBFCF91DF911F910F910895EF92FF9299
:101CF0000F931F93DF93CF93CDB7DEB72E970FB619
:101D0000F894DEBF0FBECDBF02E011E07E01089463
:101D1000E11CF11CC701B8010E94352D86EA94E050
:101D2000B7010E94AD0AC7010E94E42D38E0E32EFE
:101D3000F12CEC0EFD1EC701B8010E94352D8BE879
:101D400094E0B7010E948E0AC7010E94E42D2E96EE
:101D50000FB6F894DEBF0FBECDBFCF91DF911F91BC
:101D60000F91FF90EF900895EF92FF920F931F93C2
:101D7000DF93CF93CDB7DEB72E970FB6F894DEBFC3
:101D80000FBECDBF02E011E07E010894E11CF11C02
:101D9000C701B8010E94352D8BEB94E0B7010E947A
:101DA000AD0AC7010E94E42D48E0E42EF12CEC0EB0
:101DB000FD1EC701B8010E94352D89EA94E0B701E4
:101DC0000E948E0AC7010E94E42D2E960FB6F89449
:101DD000DEBF0FBECDBFCF91DF911F910F91FF905E
:101DE000EF9008950F931F93DF93CF93CDB7DEB796
:101DF0002E970FB6F894DEBF0FBECDBF6091EE01F7
:101E00007091EF018E010F5F1F4FC8014AE00E94E1
:101E10009A2D86EE94E0B8010E94AD0AC8010E9496
:101E2000E42D8E01085F1F4F6091EE017091EF016C
:101E3000C8014AE00E949A2D80EC94E0B8010E940B
:101E40008E0AC8010E94E42D2E960FB6F894DEBFCC
:101E50000FBECDBFCF91DF911F910F910895EF92EB
:101E6000FF920F931F93DF93CF93CDB7DEB72E97DB
:101E70000FB6F894DEBF0FBECDBF02E011E07E01C9
:101E80000894E11CF11CC701B8010E94352D88EFB0
:101E900094E0B7010E94AD0AC7010E94E42D58E00A
:101EA000E52EF12CEC0EFD1EC701B8010E94352D68
:101EB00088EE94E0B7010E948E0AC7010E94E42DCB
:101EC0002E960FB6F894DEBF0FBECDBFCF91DF9137
:101ED0001F910F91FF90EF9008950F931F93DF9341
:101EE000CF93CDB7DEB72E970FB6F894DEBF0FBEF7
:101EF000CDBF6091EC017091ED018E010F5F1F4F1E
:101F0000C8014AE00E949A2D8CE195E0B8010E9438
:101F1000AD0AC8010E94E42D8E01085F1F4F609139
:101F2000EC017091ED01C8014AE00E949A2D8AEF00
:101F300094E0B8010E948E0AC8010E94E42D2E96FA
:101F40000FB6F894DEBF0FBECDBFCF91DF911F91CA
:101F50000F9108950F931F93DF93CF93CDB7DEB703
:101F60002E970FB6F894DEBF0FBECDBF6091EA0189
:101F70007091EB018E010F5F1F4FC8014AE00E9474
:101F80009A2D80E495E0B8010E94AD0AC8010E9434
:101F9000E42D8E01085F1F4F6091EA017091EB0103
:101FA000C8014AE00E949A2D8EE195E0B8010E9496
:101FB0008E0AC8010E94E42D2E960FB6F894DEBF5B
:101FC0000FBECDBFCF91DF911F910F910895EF927A
:101FD000FF920F931F93DF93CF93CDB7DEB72E976A
:101FE0000FB6F894DEBF0FBECDBF02E011E07E0158
:101FF0000894E11CF11CC701B8010E94352D80E650
:1020000095E0B7010E94AD0AC7010E94E42D68E087
:10201000E62EF12CEC0EFD1EC701B8010E94352DF5
:1020200082E495E0B7010E948E0AC7010E94E42D68
:102030002E960FB6F894DEBF0FBECDBFCF91DF91C5
:102040001F910F91FF90EF900895CF92DF92EF9242
:10205000FF920F931F937C018B0175E9C72E72E0ED
:10206000D72EC601B701F80140810E945F2608946F
:10207000E11CF11CC601B701F80141810E945F26F5
:1020800082E090E01F910F91FF90EF90DF90CF9052
:1020900008958AE090E06AE771E00E9425100895B3
:1020A00088E090E06EEE71E00E942510089586E0D1
:1020B00090E06CEE71E00E942510089584E090E0BD
:1020C0006AEE71E00E942510089582E090E06CE7CE
:1020D00071E00E9425100895DF93CF9300D0CDB713
:1020E000DEB780E790E09A83898380E090E0BE01CC
:1020F0006F5F7F4F0E94251082E090E06CE771E0F7
:102100000E94251084E090E06AEE71E00E942510A4
:1021100086E090E06CEE71E00E94251088E090E08F
:102120006EEE71E00E9425108AE090E06AE771E0AF
:102130000E9425100F900F90CF91DF91089587ECAA
:102140009FE190937D0180937C0180E094E09093E7
:10215000EB018093EA0180E093E09093ED0180939E
:10216000EC0184E690E09093EF018093EE0180ED26
:1021700097E090937B0180937A010E946C10089500
:10218000CF92DF92EF92FF920F931F937C018B010E
:10219000E5E9CE2EE2E0DE2EC601B7010E94582608
:1021A000F80180830894E11CF11CC601B7010E946C
:1021B0005826F801818382E090E01F910F91FF90F3
:1021C000EF90DF90CF900895DF93CF9300D0CDB7FD
:1021D000DEB780E090E0BE016F5F7F4F0E94C010CD
:1021E00087EC9FE190937D0180937C0180E094E0F7
:1021F0009093EB018093EA0180E093E09093ED01EE
:102200008093EC0184E690E09093EF018093EE01DF
:1022100080ED97E090937B0180937A0189819A8188
:10222000845690400C97F0F482E090E06CE771E007
:102230000E94C01084E090E06AEE71E00E94C0103D
:1022400086E090E06CEE71E00E94C01088E090E0C3
:102250006EEE71E00E94C0108AE090E06AE771E0E3
:102260000E94C0108091EA019091EB01805094404F
:102270003CF08091EC019091ED018050934014F579
:1022800087EC9FE190937D0180937C0180E094E056
:102290009093EB018093EA0180E093E09093ED014D
:1022A0008093EC0184E690E09093EF018093EE013F
:1022B00080ED97E090937B0180937A018FEF9FEF01
:1022C0009A83898389819A818037910519F00E94C8
:1022D0006C101EC082E090E06CE771E00E94C010BC
:1022E00084E090E06AEE71E00E94C01086E090E029
:1022F0006CEE71E00E94C01088E090E06EEE71E03C
:102300000E94C0108AE090E06AE771E00E94C0106D
:102310000F900F90CF91DF910895CF93DF93EC0151
:102320006115710519F420E030E00FC0DB010D905C
:102330000020E9F71197A61BB70BE881F98102800D
:10234000F381E02DAD0109959C01C901DF91CF9189
:10235000089580914702882309F4AFC01092470284
:1023600083E292E063E071E00E948D1164E670E028
:1023700080E090E00E94832783E292E068E071E0D1
:102380000E948D1164E670E080E090E00E94832757
:1023900083E292E06DE071E00E948D1164E670E0EE
:1023A00080E090E00E94832783E292E06DE071E09C
:1023B0000E948D1164E670E080E090E00E94832727
:1023C00083E292E06DE071E00E948D1164E670E0BE
:1023D00080E090E00E94832783E292E06DE071E06C
:1023E0000E948D1164E670E080E090E00E948327F7
:1023F00083E292E06DE071E00E948D1164E670E08E
:1024000080E090E00E94832783E292E06DE071E03B
:102410000E948D1164E670E080E090E00E948327C6
:1024200083E292E06DE071E00E948D1164E670E05D
:1024300080E090E00E94832783E292E062E171E015
:102440000E948D1168EE73E080E090E00E94832787
:1024500083E292E067E171E00E948D1183E292E0F5
:102460006FE171E00E948D1183E292E067E271E01A
:102470000E948D1183E292E06EE271E00E948D1164
:1024800083E292E065E371E00E948D1183E292E0C5
:102490006BE371E00E948D1180914802882339F02E
:1024A00083E292E061E471E00E948D11089583E27D
:1024B00092E067E471E00E948D1108958091A2017D
:1024C0009091A301181619060CF072C00E9475278E
:1024D00020914D0230914E0240914F025091500296
:1024E000621B730B840B950B2091A2013091A30109
:1024F000442737FD4095542F2617370748075907BB
:1025000008F056C00E94752760934D0270934E02EA
:1025100080934F02909350020E945D0D0E94F30D34
:1025200080910B0290910C02892B09F441C00E940A
:1025300075272091490230914A0240914B025091F7
:102540004C02621B730B840B950B6158794A8340D4
:10255000904070F10E941F0D10920C0210920B021D
:1025600083E292E06DE471E00E948D1168EE73E009
:1025700080E090E00E9483271092FE011092FD01FE
:1025800006C061E070E080E090E00E9483278091C7
:10259000F4019091F5010197A1F38091F0019091E0
:1025A000F1019093F3018093F20181E0809398010F
:1025B0000895DF92EF92FF920F931F93DF93CF93D3
:1025C000CDB7DEB7CF54D0400FB6F894DEBF0FBE04
:1025D000CDBF0E9475272091430230914402409163
:1025E000450250914602621B730B840B950B261714
:1025F00037074807590750F581E080939D018FEF19
:102600009FEF90939F0180939E019093A1018093EF
:10261000A00183E292E00E947C2483E292E040E801
:1026200055E260E070E00E94BF2383E292E062E541
:1026300071E00E948D110E94752760934302709390
:1026400044028093450290934602D0C083E292E018
:102650000E94DB24892BA9F580919E0190919F0116
:1026600097FD14C00E94752720913F0230914002CF
:102670004091410250914202621B730B840B950BF7
:10268000695873418040904008F4B0C00E9475279B
:1026900060933F0270934002809341029093420204
:1026A00080919D01882331F010929F0110929E012C
:1026B00010929D0183E292E062E571E00E948D112B
:1026C00095C00E94752760934302709344028093E3
:1026D0004502909346028E010F5F1F4FC80162E0D2
:1026E00071E00E94352DF8E0EF2EF12CEC0EFD1E6E
:1026F000D02E012F16C083E292E00E94BA24682FE8
:102700008D30B1F08A30A1F0882391F0C7010E948A
:10271000CB2D8D2D902FB7010E94FA2CC7010E945E
:10272000E42D83E292E00E94DB24181619061CF3C4
:102730007E010894E11CF11CC70167E571E00E946D
:10274000742C882341F010929F0110929E0181E029
:102750008093470234C0C7016BE571E00E94742C7E
:10276000882369F081E090E090939F0180939E011F
:1027700083E292E06EE571E00E948D1120C0C701F6
:1027800063E671E00E94742C882339F4C70165E682
:1027900071E00E94742C8823B9F0CE01019662E0AA
:1027A00071E00E944F2D0BC08091A0019091A1017A
:1027B0002817390724F03093A1012093A001CE01FE
:1027C00001960E94E42D12C08E01015F1F4FC701C8
:1027D000B80140E450E020E030E00E94472CC801FE
:1027E0000E940D089C0197FFDFCFE9CFC15BDF4F4F
:1027F0000FB6F894DEBF0FBECDBFCF91DF911F9112
:102800000F91FF90EF90DF900895EF92FF920F935A
:102810001F93DF93CF93CDB7DEB7A0970FB6F89491
:10282000DEBF0FBECDBF198200E010E07E0108942C
:10283000E11CF11C8DE293E00E946D2A1816190626
:10284000CCF78DE293E00E949E2AF701E00FF11F82
:1028500080838A3029F0882319F00F311105A9F4FB
:10286000CE010196080F191FF80110820E940D0871
:10287000A0960FB6F894DEBF0FBECDBFCF91DF910B
:102880001F910F91FF90EF9008950F5F1F4FD2CFD0
:1028900082309105A9F0833091051CF4019731F441
:1028A00008C08330910579F00497C1F088E060E0BA
:1028B00002C088E061E00E94B62887E060E009C0BD
:1028C00088E060E002C088E061E00E94B62887E00E
:1028D00061E00E94B62886E060E00AC088E061E01E
:1028E0000E94B62887E061E00E94B62886E061E099
:1028F0000E94B6280895CF93DF93EC018091F401F4
:102900009091F501892B99F484E06C2F0E94B628F0
:1029100089E060E00E94B62885E061E00E94B62868
:1029200081E090E09093F5018093F4011DC084E074
:102930006C2F0E94B62889E060E00E94B62885E0EE
:1029400060E00E94B6281092F5011092F401809187
:10295000F0019091F101219711F4019701C00196C6
:102960009093F1018093F001DF91CF91089589E078
:1029700061E00E94B62884E060E00E94B62885E00D
:1029800060E00E94B6281092F5011092F4010895BB
:102990009C01442737FD4095542F60EF79E482E095
:1029A00090E00E94243286E992E0BA01A9010E94D7
:1029B000922608950F931F93DF93CF93CDB7DEB781
:1029C000C654D0400FB6F894DEBF0FBECDBF809185
:1029D0000B0290910C028330910509F495C084306C
:1029E00091055CF481309105D9F0823091050CF0AD
:1029F0005EC0892B09F4B0C1C9C18630910509F4C4
:102A0000FCC08730910524F4059709F0BFC1ADC023
:102A10008730910509F41AC1089709F0B7C157C169
:102A20008091E7019091E801892B09F0AFC18E01F7
:102A30000F5F1F4FC80162E071E00E94352D82EDEB
:102A400096E0B8010E948E0AC8010E94E42D2091F0
:102A5000F0013091F10180910F029091100228173E
:102A6000390711F18E01085F1F4FC80162E071E064
:102A70000E94352D88EA96E0B8010E948E0AC801AE
:102A80000E94E42D80910F02909110029093F30127
:102A90008093F20180919B0190919C010E94C81447
:102AA000109279011092780182E090E028C0209184
:102AB000F0013091F1018091F2019091F30128171A
:102AC000390709F063C18E01015F1F4FC80162E041
:102AD00071E00E94352D88E896E0B8010E948E0AC8
:102AE000C8010E94E42D0E94752760931B02709319
:102AF0001C0280931D0290931E0283E090E090934D
:102B00000C0280930B0242C10E94752720911B0288
:102B100030911C0240911D0250911E02621B730BEA
:102B2000840B950B20911F023091200240912102CD
:102B300050912202261737074807590708F026C187
:102B40008E010A5E1F4FC80162E071E00E94352DC0
:102B50008FE596E0B8010E948E0AC8010E94E42D1C
:102B60000E942F0F84E090E0CACF8091E7019091FE
:102B7000E801892B09F00AC18E01035E1F4FC801CD
:102B800062E071E00E94352D86E496E0B8010E9473
:102B90008E0AC8010E94E42D8E010C5D1F4FC801F2
:102BA00062E071E00E94352D8DE096E0B8010E9450
:102BB0008E0AC8010E94E42D8091110290911202A8
:102BC00020910F0230911002820F931F9093F30116
:102BD0008093F20197FF04C01092F3011092F2016A
:102BE0008091990190919A010E94C81410927901E4
:102BF0001092780186E090E082CF2091F001309130
:102C0000F1018091F2019091F3012817390709F041
:102C1000BDC08E01055D1F4FC80162E071E00E94DA
:102C2000352D8DEE95E0B8010E948E0AC8010E94F4
:102C3000E42D0E9475276093130270931402809311
:102C400015029093160287E090E059CF0E947527F5
:102C500020911302309114024091150250911602F6
:102C6000621B730B840B950B209117023091180295
:102C70004091190250911A02261737074807590741
:102C800008F084C08E010E5C1F4FC80162E071E045
:102C90000E94352D83EC95E0B8010E948E0AC80190
:102CA0000E94E42D80918E0190918F019093930169
:102CB0008093920180E89CE09093FE018093FD0157
:102CC00081E090E09093E8018093E70118CF809134
:102CD000E7019091E801892B09F058C08E01075C4B
:102CE0001F4FC80162E071E00E94352D8AEB95E02C
:102CF000B8010E948E0AC8010E94E42D8E01005C7A
:102D00001F4FC80162E071E00E94352D86E995E011
:102D1000B8010E948E0AC8010E94E42D20910F0282
:102D2000309110028091F0019091F1018217930788
:102D300024F43093F3012093F20180919901909152
:102D40009A010E94C8141092790110927801109291
:102D50000C0210920B021AC02091F0013091F10187
:102D60008091F2019091F3012817390779F480914D
:102D70009801882359F481E0809398018091820121
:102D8000909183010E94C8140E942F0FCA5BDF4FED
:102D90000FB6F894DEBF0FBECDBFCF91DF911F916C
:102DA0000F910895CF93DF932091F0013091F101BD
:102DB0008091F2019091F301821793071CF481E056
:102DC00090E005C0281739072CF480E090E00E94BD
:102DD0007B1411C02817390771F480917801909104
:102DE0007901892B41F40E94B71482E090E090931E
:102DF000790180937801C091E701D091E801C13059
:102E0000D10591F010920802109207028091F90109
:102E10009091FA019093FE018093FD0182E0609110
:102E200003020E94B62886C08091F6018823A1F48F
:102E300082E061E00E94B62883E06FE670E00E94C5
:102E400017288091F701882309F07BC08091F80151
:102E5000882309F076C06AC06091F9017091FA0187
:102E60002091FD013091FE01621B730B882777FDD5
:102E70008095982F0E94003120E030E040E15FE330
:102E80000E948C310E94CD309B01709306026093AA
:102E90000502161617062CF4D0930402C093030201
:102EA00004C010920402109203028091920190914A
:102EB00093019093080280930702235E3F4F2B33C8
:102EC000310558F510920802109207020E947527EA
:102ED0002091FF01309100024091010250910202C5
:102EE000621B730B840B950B20919401309195011B
:102EF00040919601509197012617370748075907C7
:102F000060F48091E7019091E801019731F482E04B
:102F100090E09093E8018093E70182E060910302E2
:102F20000E94B62880910902882321F083E060E0A6
:102F300070E005C0609107027091080283E00E9472
:102F40001728DF91CF91089583E060E070E00E9440
:102F500017288EE00E940A29892B29F01092FA0185
:102F60001092F9010CC080E099E120918A01309122
:102F70008B01821B930B9093FA018093F90180914E
:102F8000F9019091FA019093FE018093FD01109256
:102F9000E8011092E7010895DF92EF92FF920F93FC
:102FA0001F93CF93DF93DD24D394D09209020E9424
:102FB00075277B018C018EE00E940A29892B79F507
:102FC000C1E0D0E00E9475276E197F09800B910B3C
:102FD000615D77408040904068F5D093E801C093F0
:102FE000E70183E06FE670E00E94172882E061E06D
:102FF0000E94B6288EE00E940A29892B19F383E0EB
:1030000060E070E00E9417281092FE011092FD010E
:10301000D093E801C093E7011092090224C00E94F6
:1030200075276E197F09800B910B615D7740804099
:10303000904028F083E090E00E94120C14C083E0DE
:103040006FE670E00E94172882E060E00E94B628D8
:103050008EE00E940A29892B11F783E060E070E07E
:103060000E941728A2CFDF91CF911F910F91FF905F
:10307000EF90DF9008950F931F93DF93CF93CDB719
:10308000DEB765970FB6F894DEBF0FBECDBF082F31
:1030900088E790E00E94C8148FE00E940A29892BDB
:1030A00071F18FE00E940A29892B89F02091F001AB
:1030B0003091F1012F5F3F4F8091F2019091F30128
:1030C0008217930721F03093F3012093F2018FE0F0
:1030D0000E940A29892B29F761E070E080E090E0E6
:1030E0000E9483272091F2013091F3018091F00139
:1030F0009091F1012817390779F781E02FC08FE00F
:103100000E940A29892B89F42091F0013091F10164
:10311000215030408091F2019091F3018217930782
:1031200021F03093F3012093F2018FE00E940A29ED
:10313000892B29F361E070E080E090E00E94832712
:103140006091F2017091F3018091F0019091F10191
:103150006817790779F7002321F480E00E943B1873
:1031600062C08E010F5F1F4FC8014AE00E949A2D76
:1031700085E895E0B8010E948E0AC8010E94E42DFE
:103180008E01085F1F4F60917C0170917D01C80125
:103190004AE00E949A2D84E795E0B8010E948E0AC9
:1031A000C8010E94E42D8E01015F1F4F6091F00164
:1031B0007091F10180917C0190917D01681B790BE8
:1031C000C8014AE00E949A2D83E695E0B8010E946A
:1031D0008E0AC8010E94E42D8091E901882359F0EC
:1031E0008091F0019091F10120917C0130917D015D
:1031F000821B930B02C080E090E00E943C0B809108
:103200007C0190917D019093F1018093F001909366
:10321000F3018093F20180918201909183010E94D9
:10322000C8140E94B71465960FB6F894DEBF0FBE9F
:10323000CDBFCF91DF911F910F9108958091E7014C
:103240009091E801019709F04BC082E00E940A29A1
:10325000892B49F480918801909189019093FA011A
:103260008093F90108958091E901882371F080919C
:103270008C0190918D01019741F481E080930902C6
:1032800082E090E00E94120C08958091F60188235C
:1032900021F580918C0190918D010197F1F02091A1
:1032A0008401309185012130310559F48FEF9FEF72
:1032B0009093850180938401309387012093860148
:1032C0000CC081E090E090938501809384018FEFA2
:1032D0009FEF909387018093860181E08093F601B0
:1032E00008958091E7019091E801019709F04AC0A3
:1032F00082E00E940A29AC018130910591F580910C
:103300008801909189019093FA018093F90180914D
:10331000F601882311F580918C0190918D01019720
:10332000E1F020918401309185012130310559F47B
:103330008FEF9FEF909385018093840130938701F5
:10334000209386010AC050938501409384018FEF3A
:103350009FEF909387018093860181E08093F6012F
:1033600008958091E901882369F080918C01909102
:103370008D01892B39F481E08093090281E090E08E
:103380000E94120C08958BE00E940A292091F901F5
:103390003091FA01892B29F0809184019091850167
:1033A00004C08091860190918701280F391F3093C6
:1033B000FA012093F9010E949D0908958BE00E9473
:1033C0000A292091F9013091FA01892B29F4809181
:1033D00084019091850104C08091860190918701BC
:1033E000280F391F3093FA012093F9010E949D099B
:1033F00008958AE00E940A292091F9013091FA018A
:10340000892B29F4809184019091850104C08091D9
:10341000860190918701280F391F3093FA0120937C
:10342000F9010E949D0908958AE00E940A292091CD
:10343000F9013091FA01892B29F080918401909152
:10344000850104C08091860190918701280F391F62
:103450003093FA012093F9010E949D0908951F936A
:1034600080919801813009F06BC083E10E940A29A4
:10347000892BA9F48FE690E09093930180939201B9
:103480008091F9019091FA01803591052CF4109208
:10349000FE011092FD011FC08055904018C082E1CE
:1034A0000E940A29892B09F58FE690E090939301F9
:1034B000809392018091F9019091FA012CE081337F
:1034C00092071CF080E89CE002C0805B9F4F9093C5
:1034D000FE018093FD0181E090E09093E8018093EC
:1034E000E70181E08093F7010EC08091F701882306
:1034F00051F08091F9019091FA019093FE0180932F
:10350000FD011092F70181E10E940A29892B31F413
:103510008091F0019091F10101970AC080E10E9431
:103520000A29892B69F48091F0019091F1010196AB
:103530009093F3018093F201109279011092780137
:103540008091780190917901029741F481E090E0B7
:1035500090937901809378010E94C20A8091E701DB
:103560009091E801029741F41092E8011092E7016E
:103570001092F8010E94700C10910A021130C9F4E7
:103580001092E90110920A0280E00E943B180E940A
:10359000A4170E94CC171093E90110920E0210920A
:1035A0000D0282E090E090937901809378010E946F
:1035B000C90C0E94DA148091780190917901892BCD
:1035C00041F08091E7019091E801019711F00E948C
:1035D000D9120E945E121F910895F89483E292E03E
:1035E0000E94B62378940895CF92DF92EF92FF92D3
:1035F0000F931F93DF93CF93CDB7DEB7CA57D14058
:103600000FB6F894DEBF0FBECDBF0E947527609342
:10361000490270934A0280934B0290934C028DE2D0
:1036200093E00E946D2A892B09F495C68DE293E000
:103630000E949E2A992787FD9095A92FB92FFC01FA
:10364000B497E735F10508F086C6EC5CFF4FEE0F46
:10365000FF1F0590F491E02D09948E010F5F1F4F1D
:10366000C80162E071E00E94352D80EC9EE0B80157
:103670000E948E0AC8010E94E42D0E947B0B0E94CA
:10368000E70F0E94760E0E94B40E0E94390E0E942F
:10369000B60D0E94C90C0E94FF0A0E94700C0E9485
:1036A000C20A0E94AA0F0E946D0F0E94F20E53C61A
:1036B0000E94A9111092980110920E0210920D0210
:1036C0000E940514BC019093100280930F028E019A
:1036D000085F1F4FC8014AE00E949A2D86E99EE0CC
:1036E000B8010E948E0AC8010E94E42D80918E01CB
:1036F00090918F01909393018093920180E89CE0D8
:103700009093FE018093FD0181E090E09093E801A9
:103710008093E70191C08E01015F1F4FC80162E0F5
:1037200071E00E94352D85E79EE0B8010E948E0A67
:10373000C8010E94E42D0E94C20A0E94700C0BC6B0
:103740000E9405149C0197FD0DC0C901AA2797FD91
:10375000A095BA2F8093170290931802A093190294
:10376000B0931A028E010A5E1F4F409117025091CA
:1037700018026091190270911A02C8012AE00E9491
:10378000682D86E59EE0E1C50E9405149C0197FD29
:103790000DC0C901AA2797FDA095BA2F80931F02DB
:1037A00090932002A0932102B09322028E01035E27
:1037B0001F4F40911F025091200260912102709191
:1037C0002202C8012AE00E94682D88E39EE0BDC560
:1037D0001092980180910F029091100290930E0226
:1037E00080930D020E940514BC01909310028093F7
:1037F0000F028E010C5D1F4FC8014AE00E949A2DF6
:1038000087E09EE0B8010E948E0AC8010E94E42D64
:1038100080919001909191019093930180939201F6
:103820001092FE011092FD0181E090E09093E8017A
:103830008093E70188E090E090930C0280930B0264
:103840008AC580918201909183010E94C8140E94D0
:1038500005147C0106C061E070E080E090E00E9409
:1038600083278091F4019091F5010197A1F3F092E3
:10387000F301E092F20180917E0190917F018E151B
:103880009F053CF08091800190918101E816F90636
:1038900024F49093F3018093F20110927901109235
:1038A00078018E01055D1F4F6091F2017091F30167
:1038B000C8014AE00E949A2D89EE9DE046C50E940B
:1038C000051497FD06C09093EB018093EA010E94D6
:1038D0005E108E010E5C1F4F6091EA017091EB014A
:1038E000C8014AE00E949A2D84EC9DE02EC50E94FA
:1038F000051497FD06C09093ED018093EC010E94A2
:1039000057108E01075C1F4F6091EC017091ED0123
:10391000C8014AE00E949A2D8FE99DE016C50E94D9
:10392000051425E08D3D920720F4909312028093B8
:1039300011028E01005C1F4F609111027091120202
:10394000C8014AE00E949A2D8EE79DE0FEC40E94C5
:1039500005147C0185369105E8F5B701882777FDC8
:103960008095982F0E94003120E030E048EC52E42E
:103970000E94653020E030E040EA52E40E948C3141
:1039800020E030E048E452E40E9401300E94CD3053
:1039900070939A01609399018E01095B1F4FC801D2
:1039A000B7014AE00E949A2D89E59DE0B8010E9486
:1039B0008E0AC8010E94E42D8E01025B1F4F6091A8
:1039C000990170919A01C8014AE00E949A2D88E3FA
:1039D0009DE0BBC48E010B5A1F4FC80162E071E02D
:1039E0000E94352D87E09DE0B0C40E9405147C0143
:1039F00085E6E816F104E8F5B701882777FD80959C
:103A0000982F0E94003120E030E048EC52E40E9400
:103A1000653020E030E040EA52E40E948C3120E042
:103A200030E048E452E40E9401300E94CD307093AF
:103A30009C0160939B018E01045A1F4FC801B7017E
:103A40004AE00E949A2D82EE9CE0B8010E948E0A04
:103A5000C8010E94E42D8E010D591F4F60919B01FA
:103A600070919C01C8014AE00E949A2D81EC9CE073
:103A70006CC48E0106591F4FC80162E071E00E94BC
:103A8000352D80E99CE061C40E94051418161906C2
:103A900074F481E0809398018E010F581F4FC80184
:103AA00062E071E00E94352D8CE69CE04EC41092DD
:103AB00098018E0108581F4FC80162E071E00E9412
:103AC000352D86E49CE041C410929801E0900F02ED
:103AD000F0901002C0900D02D0900E02F0920E02F3
:103AE000E0920D020E940514BC0190931002809395
:103AF0000F0280910D0290910E02681779075CF514
:103B00008E0101581F4FC8014AE00E949A2D88E09B
:103B10009CE0B8010E948E0AC8010E94E42D8E012B
:103B20000A571F4FC80162E071E00E94352D80ECFA
:103B30009BE0B8010E948E0AC8010E94E42D80918A
:103B40000D0290910E02E80EF91EEC18FD08F0929D
:103B50001002E0920F028E0103571F4F60910F0277
:103B600070911002C8014AE00E949A2D82E99BE000
:103B7000B8010E948E0AC8010E94E42D8091900134
:103B800090919101909393018093920185E090E050
:103B900090930C0280930B021092FE011092FD0193
:103BA00081E090E09093E8018093E701D4C30E9404
:103BB00005147C012CEF883192076CF180917E0115
:103BC00090917F018E159F0534F18E010C561F4F89
:103BD000C801B7014AE00E949A2D87E69BE0B80130
:103BE0000E948E0AC8010E94E42DF092F101E09239
:103BF000F001F092F301E092F201F0920E02E092F5
:103C00000D02F0921002E0920F0281E08093E90130
:103C10000E94C20AA0C38E0105561F4FC80162E070
:103C200071E00E94352D88E29BE08FC30E9405144D
:103C30000097A9F48E010E551F4FC80162E071E094
:103C40000E94352D89E09BE0B8010E948E0AC801D0
:103C50000E94E42D83E292E06DE471E05DC081306A
:103C60009105A9F48E0107551F4FC80162E071E06C
:103C70000E94352D8BEE9AE0B8010E948E0AC80191
:103C80000E94E42D83E292E067E671E045C0823055
:103C9000910509F044C08E0100551F4FC80162E034
:103CA00071E00E94352D8FEC9AE0B8010E948E0AD7
:103CB000C8010E94E42D83E292E067E171E00E9476
:103CC0008D1183E292E06FE171E00E948D1183E239
:103CD00092E067E271E00E948D1183E292E06EE271
:103CE00071E00E948D1183E292E065E371E00E9431
:103CF0008D1183E292E06BE371E00E948D1180915F
:103D00004802882329F083E292E061E471E004C074
:103D100083E292E067E471E00E948D111CC383305E
:103D20009105A9F48E0109541F4FC80162E071E0AA
:103D30000E94352D8BEA9AE0B8010E948E0AC801D4
:103D40000E94E42D83E292E067E471E02FC08430AA
:103D50009105A9F48E0102541F4FC80162E071E081
:103D60000E94352D88E89AE0B8010E948E0AC801A9
:103D70000E94E42D83E292E061E471E033C085307B
:103D80009105C9F48E010B531F4FC80162E071E029
:103D90000E94352D82E69AE0B8010E948E0AC80181
:103DA0000E94E42D83E292E06CE671E00E948D11A6
:103DB00010924802D0C286309105D1F48E0104538E
:103DC0001F4FC80162E071E00E94352D85E39AE043
:103DD000B8010E948E0AC8010E94E42D83E292E09D
:103DE00062E771E00E948D1181E080934802B3C2C6
:103DF000079709F0B0C28E010D521F4FC80162E053
:103E000071E00E94352D84E19AE0B8010E948E0A8B
:103E1000C8010E94E42D0E94A9119DC20E940514B0
:103E2000BC010097A9F48E0106521F4FC80162E041
:103E300071E00E94352D84EF99E0B8010E948E0A4E
:103E4000C8010E94E42D1092A3011092A20183C226
:103E500083E0683E7807E4F07093A3016093A201C9
:103E60008E010F511F4FC8014AE00E949A2D8FEC1E
:103E700099E0B8010E948E0AC8010E94E42D1092B8
:103E80004D0210924E0210924F021092500263C2E5
:103E90008E0108511F4F6091A2017091A301C801CA
:103EA0004AE00E949A2D8EEA99E04FC20E940514C2
:103EB0008336910599F48E0101511F4FC80162E0CC
:103EC00071E00E94352D8EE899E0B8010E948E0ABB
:103ED000C8010E94E42D0E949F103DC28E010A502D
:103EE0001F4FC80162E071E00E94352D80E799E024
:103EF000B8010E948E0AC8010E94E42D81E08093DF
:103F00000A0210920C0210920B028093980123C2B5
:103F10008E0103501F4FC80162E071E00E94352DF1
:103F200082E699E0B8010E948E0AC8010E94E42D41
:103F300010920C0210920B0281E080939801809104
:103F4000F9019091FA019093FE018093FD0106C062
:103F500061E070E080E090E00E9483278091F401AE
:103F60009091F5010197A1F38091F0019091F101F9
:103F70009093F3018093F201EEC10E94051418168C
:103F8000190674F481E08093A4018E010C5F1E4F2A
:103F9000C80162E071E00E94352D88E399E0D5C147
:103FA0008E01055F1E4FC80162E071E00E94352D51
:103FB0008CE099E0B8010E948E0AC8010E94E42DAD
:103FC0001092A401C8C10E94051497FD06C09093E9
:103FD000EF018093EE010E9450108E010E5E1E4F85
:103FE0006091EE017091EF01C8014AE00E949A2DA4
:103FF00082EE98E0AAC18091E901882359F48E01EC
:10400000075E1E4FC80162E071E00E94352D84EC0E
:1040100098E09BC180910902882359F08E01005ECF
:104020001E4FC80162E071E00E94352D8DE998E0D5
:104030008CC10E9405147C01B701882777FD80950B
:10404000982F0E94003120E030E048EC52E40E94BA
:10405000653020E030E048E455E40E948C3120E0F7
:1040600030E040E050E00E9401300E94CD309B01E2
:10407000AC01CB01E114F104F1F41092FE011092B5
:10408000FD0181E090E09093E8018093E70181E0F9
:104090008093F8018FE690E09093930180939201D2
:1040A0008E01095D1E4FC801B9014AE00E949A2D98
:1040B00084E798E04AC164E6E616F10401F580E879
:1040C0009CE09093FE018093FD0181E090E090934D
:1040D000E8018093E70181E08093F8018FE690E0AA
:1040E00090939301809392018E01025D1E4FC8014F
:1040F000B9014AE00E949A2D8DE498E026C137FD6F
:104100002AC1815A9F400CF026C13093FE012093B2
:10411000FD0181E090E09093E8018093E70181E068
:104120008093F8018FE690E0909393018093920141
:104130008E010B5C1E4FC801B9014AE00E949A2D06
:1041400084E398E002C10E9405147C0185E6E8162C
:10415000F104E8F5B701882777FD8095982F0E9434
:10416000003120E030E048EC52E40E94653020E06D
:1041700030E040E253E40E948C3120E030E04EEB2E
:1041800052E40E9401300E94CD3070938F01609301
:104190008E018E01045C1E4FC801B7014AE00E94E7
:1041A0009A2D8FE098E0B8010E948E0AC8010E9403
:1041B000E42D8E010D5B1E4F60918E0170918F0179
:1041C000C8014AE00E949A2D8BEE97E0BEC08E0196
:1041D000065B1E4FC80162E071E00E94352D8BEB3B
:1041E00097E0B3C00E9405147C0185369105E8F57F
:1041F000B701882777FD8095982F0E94003120E035
:1042000030E048EC52E40E94653020E030E040E2CB
:1042100053E40E948C3120E030E04EEB52E40E94E7
:1042200001300E94CD3070939101609390018E0116
:104230000F5A1E4FC801B7014AE00E949A2D85E926
:1042400097E0B8010E948E0AC8010E94E42D8E01F9
:10425000085A1E4F6091900170919101C8014AE087
:104260000E949A2D80E797E070C08E01015A1E4F80
:10427000C80162E071E00E94352D80E497E065C0DE
:104280000E9405149C0140917C0150917D011816FB
:104290001906B4F48091F0019091F101841B950B03
:1042A000820F931F9093F1018093F0019093F3019B
:1042B0008093F20130937D0120937C010E94651070
:1042C0008E010A591E4F60917C0170917D01C801D9
:1042D0004AE00E949A2D8EE197E037C00E940514B3
:1042E0009C01C2978135910520F43093830120937E
:1042F000820180918201909183010E94C8148E01F5
:1043000003591E4F6091820170918301C8014AE0F8
:104310000E949A2D80E097E018C00E94051418169C
:10432000190634F490937B0180937A010E9449101E
:104330008E010C581E4F60917A0170917B01C8016B
:104340004AE00E949A2D8FED96E0B8010E948E0AF5
:10435000C8010E94E42DC658DE4F0FB6F894DEBFA8
:104360000FBECDBFCF91DF911F910F91FF90EF90C6
:10437000DF90CF900895EF92FF920F931F93CF930A
:10438000DF938C01E62EF42E87E090E00E947C2BD8
:10439000DC0111961C921E921496EC9214971296C0
:1043A000FC92129716961C921E921597E8012A818C
:1043B0003B81F9018081E8E9FFE0EE0DF11DE49118
:1043C0001396EC931397E82BE901E883E8E6F0E015
:1043D0008081E8012C81822B80838A2FDF91CF910D
:1043E0001F910F91FF90EF9008950F931F93CF931C
:1043F000DF93EC0189010E94BB21DC01009791F061
:10440000EE81FF81309719F49F838E8309C0CF011D
:104410000580F681E02D3097D1F7FC01B683A583A6
:104420000D931C93DF91CF911F910F910895582FF9
:104430009B01E82FF0E0EC57F04F84918823E1F0E6
:1044400061157105C9F0833039F0843041F0823054
:1044500041F4AFECB1E005C0A7EDB1E002C0AFEDB3
:10446000B1E0ED91FC911197808115968C93159791
:10447000CD01652F0E94F52108958CE060E00E9437
:1044800077288CE06DEE7AE141E050E00E9417223F
:104490008DE061E00E94772881E160E00E9477284A
:1044A00081E161E00E94B62880E160E00E94772807
:1044B00080E161E00E94B62882E160E00E947728F6
:1044C00082E161E00E94B62883E160E00E947728E3
:1044D00083E161E00E94B6288FE060E00E947728C7
:1044E0008FE061E00E94B6288EE060E00E947728AD
:1044F0008EE061E00E94B6288EE061E779E143E05A
:1045000050E00E9417228EE06EE179E142E050E037
:104510000E9417228BE060E00E9477288BE061E028
:104520000E94B6288BE064E17AE143E050E00E940B
:1045300017228BE069EF79E142E050E00E941722F8
:104540008AE060E00E9477288AE061E00E94B62855
:104550008AE06EED79E143E050E00E9417228AE0A4
:1045600063EC79E142E050E00E94172283E061E0D1
:104570000E94772882E061E00E94772889E061E06C
:104580000E94772885E061E00E94772884E061E05E
:104590000E94772888E061E00E94772887E061E048
:1045A0000E94772886E061E00E94772808950F93A3
:1045B0001F930E943D228DE293E040E052EC61E0C7
:1045C00070E00E94E62983E292E040E855E260E074
:1045D00070E00E94BF230E94752760934902709388
:1045E0004A0280934B0290934C020E94752760937D
:1045F00043027093440280934502909346020E94C6
:10460000A41706E912E0209182013091830144272A
:1046100037FD4095542F60EF79E482E090E00E94EE
:104620002432C801BA01A9010E940627C80162ED1F
:1046300076E12FEF3FEF4FEF5FEF0E940E27809163
:104640008201909183010E94C81480E090E00E9452
:1046500048140E94B7140E94E4100E947B0B109231
:10466000A4010E94E70F0E94B40E0E94760E0E94E1
:10467000390E0E94B60D0E94C90C0E94700C0E9457
:10468000FF0A0E94C20A0E94AA0F0E946D0F0E9498
:10469000F20E1F910F9108950F931F93CF93DF9305
:1046A000FC01738D76957170A685B7859585772306
:1046B00029F08C91892309F454C004C08C9189237A
:1046C00009F04FC08389948920E001972FEF8F3F35
:1046D0009207D9F7C589D689A685B785158560E083
:1046E00031E040E050E000E0CE01202F01972FEFB5
:1046F0008F3F9207D9F78C91812311F0632B03C070
:10470000832F80956823330F4F5F5F4F48305105EB
:1047100059F78789908D20E001972FEF8F3F9207FF
:10472000D9F771116095809193022091940290E0E5
:1047300001968F73907030E08217930779F0E091C3
:104740009302F0E0ED5AFD4F60838091930290E078
:1047500001968F7390708093930203C0838D816064
:10476000838FDF91CF911F910F9108958091510216
:1047700090915202009711F00E944C230895CF921D
:10478000DF92EF92FF920F931F93CF93DF93EC0191
:104790007A018B011A8E198E188E1F8A1E8A1D8A25
:1047A0001C8A1B8A20E030E06901CC0CDD1CC20EA3
:1047B000D31EB601660F771F660F771FAB014A52F3
:1047C000514FFA0185919591A591B4918E159F0550
:1047D000A007B107E9F4FB01E652F14F85919491EE
:1047E0009C8B8B8BFB01E452F14F859194919E8BB6
:1047F0008D8BFB01E252F14F85919491988F8F8BB5
:10480000FB01E052F14F859194919A8F898F06C0F8
:104810002F5F3F4F2C30310509F0C6CF8F89988D1F
:10482000892B09F449C04C85463108F03DC0909170
:104830006800483010F484E005C04E3010F082E08B
:1048400001C081E0892B80936800483028F4EDE6B0
:10485000F0E0ADE6B0E00BC04E3028F0ECE6F0E062
:10486000ACE6B0E004C0EBE6F0E0ABE6B0E05081CF
:10487000483040F481E090E002C0880F991F4A95CB
:10488000E2F710C0242F30E04E3018F428503040AA
:1048900002C02E50304081E090E002C0880F991F86
:1048A0002A95E2F7852B8C93898D9A8D20E00197CC
:1048B0002FEF8F3F9207D9F78091510290915202CA
:1048C0008C179D0781F08B8D8E7F8B8F9FB7F8940F
:1048D000109293028091930280939402D09352029B
:1048E000C09351029FBFDF91CF911F910F91FF9015
:1048F000EF90DF90CF900895FC014485463180F51C
:10490000483028F4EDE6F0E0ADE6B0E00BC04E3004
:1049100028F4EBE6F0E0ABE6B0E004C0ECE6F0E053
:10492000ACE6B0E05081483040F481E090E002C055
:10493000880F991F4A95E2F710C0242F30E04E30BF
:1049400018F42850304002C02E50304081E090E0F2
:1049500002C0880F991F2A95E2F7809585238C93D2
:104960000895FC018FEA91E091838083CF010E943A
:104970007C24089520915102309152022817390762
:1049800031F49091940280919302981719F42FEFCB
:104990003FEF0FC0E0919402F0E0ED5AFD4F20810F
:1049A0008091940290E001968F73907080939402AE
:1049B00030E0C90108952091510230915202281728
:1049C000390719F020E030E00EC080919302209169
:1049D000940290E0805C9F4F821B910960E470E03C
:1049E0000E94EF319C01C90108950F931F93DC01D0
:1049F00059968D919C915A97892B49F481E090E0CA
:104A000013969C938E93129720E030E097C00FB7D7
:104A1000F8945B968C915B975196ED91FC9152972F
:104A200050962C91509781FF8DC08081822B80837E
:104A300059968D919C915A97059620E001972FEFFA
:104A40008F3F9207D9F75B968C915B9781FF35C0BA
:104A500031E040E050E070E010E0832F90E08623EA
:104A600097235196ED91FC91529750962C91509727
:104A7000892B29F0808120952823208303C0808101
:104A8000822B808359968D919C915A97212F019763
:104A90002FEF8F3F9207D9F7330F4F5F5F4F4830AB
:104AA0005105D9F65196ED91FC915297908150960F
:104AB0008C9150978095892333C031E040E050E0DD
:104AC00070E010E0832F90E0862397235196ED91BC
:104AD000FC91529750962C915097892B21F0808110
:104AE000822B808304C080812095282320835996BF
:104AF0008D919C915A97212F01972FEF8F3F92070D
:104B0000D9F7330F4F5F5F4F48305105D9F65196B3
:104B1000ED91FC915297808150969C915097892BF2
:104B200080830FBF59968D919C915A9720E00197F1
:104B30002FEF8F3F9207D9F721E030E0C9011F9195
:104B40000F910895808120952823208371CF209193
:104B50005102309152022817390749F49FB7F8944F
:104B60001092930280919302809394029FBF0895C4
:104B700020915102309152022817390731F4909157
:104B8000940280919302981719F42FEF3FEF0AC017
:104B9000E0919402F0E0ED5AFD4F8081282F3327F9
:104BA00027FD3095C90108951F93CF93DF93EC0142
:104BB000162F862F60E00E9477288B8D81FD04C020
:104BC000812F61E00E94B6281C87212F30E0C901A7
:104BD0008856904FFC0184918D872C57304FF901F6
:104BE0006491E62FF0E0EE0FFF1FE658F04F85913D
:104BF00094919F878E87DF91CF911F910895FF92A7
:104C00000F931F938C01F62E862F61E00E94772868
:104C10008F2D61E00E94B6288F2D90E0FC01E856B0
:104C2000F04FE491D8015096EC9350978C57904FE9
:104C3000FC016491E62FF0E0EE0FFF1FE059F04F0A
:104C40008591949152969C938E9351971F910F91B9
:104C5000FF900895FF920F931F938C01F62EFC0195
:104C60001382128288EE93E0A0E0B0E08483958303
:104C7000A683B7838FEA91E091838083148A138A95
:104C8000168A158A108E178A128E118E838D2170C6
:104C9000220F8C7F822B838FC801642F0E94FF25F7
:104CA000C8016F2D0E94D4251F910F91FF90089588
:104CB000F999FECF72BD61BDF89A80B50895F99952
:104CC000FECF1FBA72BD61BD40BD0FB6F894FA9A0F
:104CD000F99A0FBE08951F920F920FB60F921124EA
:104CE0002F933F934F935F936F937F938F939F93F4
:104CF000AF93BF93EF93FF93E0919A02F0919B02E1
:104D00000995FF91EF91BF91AF919F918F917F9105
:104D10006F915F914F913F912F910F900FBE0F9028
:104D20001F901895FC01A3E0440F551F661F771FC5
:104D3000AA95D1F7403080E0580781E0680780E00D
:104D4000780714F481E010C033E0759567955795A6
:104D500047953A95D1F7403080E0580781E06807E1
:104D600080E078071CF482E0828339C023E07595E7
:104D70006795579547952A95D1F7403080E05807B9
:104D800081E0680780E0780714F483E0EDCF92E0DB
:104D900075956795579547959A95D1F7403080E07E
:104DA000580781E0680780E0780714F484E0DCCFDE
:104DB00082E075956795579547958A95D1F740306C
:104DC00080E0580781E0680780E0780714F485E008
:104DD000CBCF85E082834FEF5FEF60E070E08FB76D
:104DE0008383F894518340835093870040938600D7
:104DF00083818FBF80918100887F80938100809123
:104E000081009281892B8093810008951092800007
:104E100020E1209381000E94922608950F931F9312
:104E2000CF93DF93EC018B011216130614061506BF
:104E300024F4BA01A9010E9492261D830C8381E00B
:104E400080936F00809181009A81892B80938100EB
:104E5000DF91CF911F910F9108951F920F920FB67E
:104E60000F9211242F933F938F939F93AF93BF93F0
:104E70008091A0029091A102A091A202B091A30200
:104E80003091A4020196A11DB11D232F2D5F2D3756
:104E900020F02D570196A11DB11D2093A4028093EF
:104EA000A0029093A102A093A202B093A3028091CA
:104EB0009C0290919D02A0919E02B0919F0201964A
:104EC000A11DB11D80939C0290939D02A0939E0210
:104ED000B0939F02BF91AF919F918F913F912F917E
:104EE0000F900FBE0F901F9018958FB7F8942091D8
:104EF000A0023091A1024091A2025091A3028FBF63
:104F0000B901CA0108959B01AC017FB7F894809163
:104F10009C0290919D02A0919E02B0919F0266B565
:104F2000A89B05C06F3F19F00196A11DB11D7FBF61
:104F3000BA2FA92F982F8827860F911DA11DB11D6B
:104F400062E0880F991FAA1FBB1F6A95D1F7BC01A9
:104F50002DC0FFB7F89480919C0290919D02A09182
:104F60009E02B0919F02E6B5A89B05C0EF3F19F0E5
:104F70000196A11DB11DFFBFBA2FA92F982F882719
:104F80008E0F911DA11DB11DE2E0880F991FAA1F70
:104F9000BB1FEA95D1F7861B970B885E9340C8F23A
:104FA000215030404040504068517C4F2115310520
:104FB0004105510571F60895789484B5826084BDE9
:104FC00084B5816084BD85B5826085BD85B581600D
:104FD00085BDEEE6F0E0808181608083E1E8F0E06D
:104FE0001082808182608083808181608083E0E89C
:104FF000F0E0808181608083E1EBF0E0808184607B
:105000008083E0EBF0E0808181608083EAE7F0E07C
:1050100080818460808380818260808380818160E0
:1050200080838081806880831092C10008951F93DF
:10503000CF93DF93182FEB0161E00E947728209730
:1050400009F44AC0CF3FD10509F449C0E12FF0E08F
:10505000E455F04F84918330C1F0843028F48130DE
:1050600051F08230B1F50CC0863019F1873049F12A
:10507000843079F514C084B5806884BDC7BD33C061
:1050800084B5806284BDC8BD2EC0809180008068D8
:1050900080938000D0938900C093880024C08091C1
:1050A0008000806280938000D0938B00C0938A0040
:1050B0001AC08091B00080688093B000C093B300A4
:1050C00012C08091B00080628093B000C093B400A1
:1050D0000AC0C038D1051CF4812F60E002C0812FC6
:1050E00061E00E94B628DF91CF911F910895CF9380
:1050F000DF93482F50E0CA018856904FFC0134914D
:105100004C57504FFA018491882369F190E0880F41
:10511000991FFC01EA59F04FA591B491FC01E059A7
:10512000F04FC591D491662351F42FB7F8948C9128
:10513000932F909589238C93888189230BC06230AB
:1051400061F42FB7F8948C91932F909589238C93C9
:105150008881832B88832FBF06C09FB7F8948C91DA
:10516000832B8C939FBFDF91CF910895482F50E000
:10517000CA018455904FFC012491CA018856904F72
:10518000FC0194914C57504FFA013491332309F4A8
:1051900040C0222351F1233071F0243028F4213013
:1051A000A1F0223011F514C02630B1F02730C1F043
:1051B0002430D9F404C0809180008F7703C080919F
:1051C00080008F7D8093800010C084B58F7702C0EF
:1051D00084B58F7D84BD09C08091B0008F7703C0F6
:1051E0008091B0008F7D8093B000E32FF0E0EE0F50
:1051F000FF1FE059F04FA591B4912FB7F8946623A3
:1052000021F48C919095892302C08C91892B8C93E9
:105210002FBF0895682F70E0CB018455904FFC019B
:105220002491CB018856904FFC0144916C57704FEC
:10523000FB019491992319F420E030E03CC0222333
:1052400051F1233071F0243028F42130A1F02230C4
:1052500011F514C02630B1F02730C1F02430D9F454
:1052600004C0809180008F7703C0809180008F7D83
:105270008093800010C084B58F7702C084B58F7D85
:1052800084BD09C08091B0008F7703C08091B000C9
:105290008F7D8093B000892F90E0880F991F8658EA
:1052A000904FFC01A591B4918C9120E030E08423D3
:1052B00011F021E030E0C90108951F920F920FB65E
:1052C0000F9211242F933F934F938F939F93EF93BC
:1052D000FF938091C00082FD1DC04091C6002091C7
:1052E000E5023091E6022F5F3F4F2F7330708091BF
:1052F000E7029091E8022817390771F0E091E50282
:10530000F091E602EB55FD4F40833093E602209387
:10531000E50202C08091C600FF91EF919F918F91AD
:105320004F913F912F910F900FBE0F901F901895A6
:10533000E0913903F0913A03E05CFF4F8191919144
:1053400020813181821B930B8F739070892B11F018
:105350000E94F41A08951F920F920FB60F92112413
:105360002F933F938F939F93EF93FF932091290364
:1053700030912A0380912B0390912C032817390731
:1053800031F48091C1008F7D8093C10014C0E09101
:105390002B03F0912C03E751FD4F208180912B03CB
:1053A00090912C0301968F73907090932C038093AF
:1053B0002B032093C600FF91EF919F918F913F9116
:1053C0002F910F900FBE0F901F901895AF92BF9224
:1053D000DF92EF92FF920F931F93CF93DF93EC0135
:1053E0007A018B01DD24403081EE580780E06807A8
:1053F00080E0780711F0DD24D39491E0A92EB12C40
:10540000EC89FD89DD2069F0C50108A002C0880F84
:10541000991F0A94E2F7808360E079E08DE390E0E1
:1054200005C0108260E874E88EE190E0A801970161
:105430000E940232215030404040504056954795DE
:105440003795279580E12030380720F0DD2011F0D6
:10545000DD24D6CFE889F9893083EA89FB89208366
:1054600019A2EE89FF89408121E030E0C9010C8C4E
:1054700002C0880F991F0A94E2F7482B4083EE89F7
:10548000FF894081C9010D8C02C0880F991F0A94C1
:10549000E2F7482B4083EE89FF894081C9010E8CD9
:1054A00002C0880F991F0A94E2F7482B4083EE89C7
:1054B000FF8980810F8C02C0220F331F0A94E2F70C
:1054C000209528232083DF91CF911F910F91FF908A
:1054D000EF90DF90BF90AF900895DC011C96ED91A6
:1054E000FC911D97E05CFF4F21913191808191816A
:1054F000281B390B2F733070C9010895DC011C96ED
:10550000ED91FC911D97E05CFF4F20813181E054CB
:10551000F040DF01AE5BBF4F8D919C911197281732
:10552000390719F42FEF3FEF07C08D919C91E80FD9
:10553000F91F8081282F30E0C9010895DC011C96F5
:10554000ED91FC911D97E05CFF4F20813181E0548B
:10555000F040DF01AE5BBF4F8D919C9111972817F2
:10556000390719F42FEF3FEF10C08D919C911197DF
:10557000E80FF91F20818D919C91119701968F73EF
:10558000907011969C938E9330E0C9010895DC01D0
:1055900091968C919197882339F05496ED91FC91D6
:1055A0005597808186FFF9CF91961C920895CF93ED
:1055B000DF93EC01EE85FF85E05CFF4F20813181B8
:1055C000E054F0402F5F3F4F2F733070DF01AE5B30
:1055D000BF4F8D919C91119728173907D1F3E05C4B
:1055E000FF4F80819181E054F040E80FF91F608304
:1055F000EE85FF85E05CFF4F31832083EE89FF89D4
:10560000208181E090E00F8C02C0880F991F0A94DE
:10561000E2F7282B208381E089A3EC89FD89808132
:105620008064808381E090E0DF91CF9108951092B3
:10563000300310922F0388EE93E0A0E0B0E0809357
:10564000310390933203A0933303B09334038FEB71
:1056500091E090932E0380932D0385EA92E090933E
:105660003A038093390389EE92E090933C03809350
:105670003B0385EC90E090933E0380933D0384ECE4
:1056800090E09093400380933F0380EC90E09093F0
:1056900042038093410381EC90E090934403809314
:1056A000430382EC90E0909346038093450386EC9D
:1056B00090E0909348038093470384E080934903EC
:1056C00083E080934A0387E080934B0385E08093D7
:1056D0004C0381E080934D030895CF93DF930E94A4
:1056E000DC270E94D722C8E9D9E20E942F1A20970E
:1056F000E1F30E949829F9CF0E94EA2D0895CF92F4
:10570000DF92EF92FF920F931F93CF93DF937C0171
:105710006B018A01C0E0D0E00FC0D6016D916D0130
:10572000D701ED91FC910190F081E02DC701099521
:10573000C80FD91F015010400115110571F7CE0196
:10574000DF91CF911F910F91FF90EF90DF90CF905D
:105750000895EF92FF920F931F93CF93DF937C01F5
:105760008B01C0E0D0E0F8010F5F1F4F649166230A
:1057700059F0D701ED91FC910190F081E02DC70126
:105780000995C80FD91FEFCFCE01DF91CF911F919F
:105790000F91FF90EF900895EF92FF920F931F9358
:1057A0008C01DC01ED91FC910190F081E02D6DE028
:1057B00009957C01D801ED91FC910190F081E02DDB
:1057C000C8016AE009959C012E0D3F1DC9011F917A
:1057D0000F91FF90EF9008950E948D110895AF9260
:1057E000BF92CF92DF92EF92FF920F931F93CF93CE
:1057F000DF935C016B01EE24FF24C0E0D0E010C019
:10580000D501ED91FC9100811181C601BE010E947C
:10581000362C682FC501F8010995E80EF91E21966E
:10582000F60184819581C817D90750F3C701DF912C
:10583000CF911F910F91FF90EF90DF90CF90BF908D
:10584000AF900895EF92FF920F931F937C010E94F7
:10585000EF2B8C01C7010E94CC2B9C01200F311F24
:10586000C9011F910F91FF90EF900895FC01848171
:1058700095816817790748F40190F081E02D309701
:1058800021F0E60FF71F8081089580E008950F93BF
:105890001F93CF93DF93FC018B0141155105F9F064
:1058A00061157105E1F0848195812817390718F099
:1058B000FB01108214C041505040EC01C21BD30BBD
:1058C0004C175D0708F4EA0160817181620F731F54
:1058D000C801AE010E944408C00FD11F1882DF9199
:1058E000CF911F910F910895DC01FB0114968D91CA
:1058F0009C911597892B31F461157105A9F090E001
:10590000808108C00D90BC91A02D6115710529F40E
:1059100090E08C91882349F407C0CD010E9434089F
:105920009C0190E0232B09F491E0892F08950F93B7
:105930001F93CF93DF93EC018B016F5F7F4F8881C3
:1059400099810E941F2F009711F480E005C0998370
:1059500088831B830A8381E0DF91CF911F910F9190
:105960000895CF93DF93EC0188819981892B29F0E9
:105970008A819B818617970760F4CE010E94972C3D
:10598000882341F08C819D81892B19F4E881F9816C
:10599000108281E0DF91CF910895EF92FF920F93F3
:1059A0001F93CF93DF93EC017B016C817D81E11428
:1059B000F104C1F04115510599F08A01060F171F36
:1059C000B8010E94B12C882369F0888199812C81CB
:1059D0003D81820F931FB7010E943D081D830C83F8
:1059E00081E001C080E0DF91CF911F910F91FF9086
:1059F000EF900895FB0160817181448155810E947F
:105A0000CD2C0895CF93DF93EC0188819981009785
:105A100011F00E94872E198218821D821C821B821F
:105A20001A82DF91CF910895EF92FF920F931F9307
:105A3000CF93DF93EC017B018A01BA010E94B12C64
:105A4000882321F4CE010E94022D07C01D830C8300
:105A500088819981B7010E943D08CE01DF91CF91E5
:105A60001F910F91FF90EF900895CF93DF93EC017A
:105A7000198218821B821A821D821C821E82611565
:105A8000710551F0DB010D900020E9F71197A61B7D
:105A9000B70BAD010E94142DDF91CF9108950F93A4
:105AA0001F93182F092F6115710559F0DB010D9017
:105AB0000020E9F71197A61BB70BAD010E94142D2A
:105AC00002C00E94022D812F902F1F910F910895E7
:105AD000EF92FF920F931F93DF93CF93CDB7DEB773
